{
	"data": {
		"bytecode": {
			"linkReferences": {},
			"object": "6080604052600a5f553480156012575f5ffd5b5061010d806100205f395ff3fe6080604052348015600e575f5ffd5b5060043610603a575f3560e01c80630d336a2114603e5780632f15fb0b1460585780636d619daa146072575b5f5ffd5b6044608c565b604051604f919060c0565b60405180910390f35b605e6094565b6040516069919060c0565b60405180910390f35b607860a5565b6040516083919060c0565b60405180910390f35b5f5f54905090565b5f5f5f549050606490508091505090565b5f5481565b5f819050919050565b60ba8160aa565b82525050565b5f60208201905060d15f83018460b3565b9291505056fea2646970667358221220241b1114bbcae72c7e1ee015b01a8f14c88d8c017b992d9eacd9678413fe736b64736f6c634300081f0033",
			"opcodes": "PUSH1 0x80 PUSH1 0x40 MSTORE PUSH1 0xA PUSH0 SSTORE CALLVALUE DUP1 ISZERO PUSH1 0x12 JUMPI PUSH0 PUSH0 REVERT JUMPDEST POP PUSH2 0x10D DUP1 PUSH2 0x20 PUSH0 CODECOPY PUSH0 RETURN INVALID PUSH1 0x80 PUSH1 0x40 MSTORE CALLVALUE DUP1 ISZERO PUSH1 0xE JUMPI PUSH0 PUSH0 REVERT JUMPDEST POP PUSH1 0x4 CALLDATASIZE LT PUSH1 0x3A JUMPI PUSH0 CALLDATALOAD PUSH1 0xE0 SHR DUP1 PUSH4 0xD336A21 EQ PUSH1 0x3E JUMPI DUP1 PUSH4 0x2F15FB0B EQ PUSH1 0x58 JUMPI DUP1 PUSH4 0x6D619DAA EQ PUSH1 0x72 JUMPI JUMPDEST PUSH0 PUSH0 REVERT JUMPDEST PUSH1 0x44 PUSH1 0x8C JUMP JUMPDEST PUSH1 0x40 MLOAD PUSH1 0x4F SWAP2 SWAP1 PUSH1 0xC0 JUMP JUMPDEST PUSH1 0x40 MLOAD DUP1 SWAP2 SUB SWAP1 RETURN JUMPDEST PUSH1 0x5E PUSH1 0x94 JUMP JUMPDEST PUSH1 0x40 MLOAD PUSH1 0x69 SWAP2 SWAP1 PUSH1 0xC0 JUMP JUMPDEST PUSH1 0x40 MLOAD DUP1 SWAP2 SUB SWAP1 RETURN JUMPDEST PUSH1 0x78 PUSH1 0xA5 JUMP JUMPDEST PUSH1 0x40 MLOAD PUSH1 0x83 SWAP2 SWAP1 PUSH1 0xC0 JUMP JUMPDEST PUSH1 0x40 MLOAD DUP1 SWAP2 SUB SWAP1 RETURN JUMPDEST PUSH0 PUSH0 SLOAD SWAP1 POP SWAP1 JUMP JUMPDEST PUSH0 PUSH0 PUSH0 SLOAD SWAP1 POP PUSH1 0x64 SWAP1 POP DUP1 SWAP2 POP POP SWAP1 JUMP JUMPDEST PUSH0 SLOAD DUP2 JUMP JUMPDEST PUSH0 DUP2 SWAP1 POP SWAP2 SWAP1 POP JUMP JUMPDEST PUSH1 0xBA DUP2 PUSH1 0xAA JUMP JUMPDEST DUP3 MSTORE POP POP JUMP JUMPDEST PUSH0 PUSH1 0x20 DUP3 ADD SWAP1 POP PUSH1 0xD1 PUSH0 DUP4 ADD DUP5 PUSH1 0xB3 JUMP JUMPDEST SWAP3 SWAP2 POP POP JUMP INVALID LOG2 PUSH5 0x6970667358 0x22 SLT KECCAK256 0x24 SHL GT EQ 0xBB 0xCA SWAPN 0x2C PUSH31 0x1EE015B01A8F14C88D8C017B992D9EACD9678413FE736B64736F6C63430008 0x1F STOP CALLER "
		},
		"gasEstimates": {
			"creation": {
				"codeDepositCost": "53800",
				"executionCost": "22208",
				"totalCost": "76008"
			},
			"external": {
				"getStoredValue()": "2409",
				"modifyUsingMemory()": "2451",
				"storedValue()": "2446"
			}
		},
		"methodIdentifiers": {
			"getStoredValue()": "0d336a21",
			"modifyUsingMemory()": "2f15fb0b",
			"storedValue()": "6d619daa"
		}
	},
	"abi": [
		{
			"inputs": [],
			"name": "getStoredValue",
			"outputs": [
				{
					"internalType": "uint256",
					"name": "",
					"type": "uint256"
				}
			],
			"stateMutability": "view",
			"type": "function"
		},
		{
			"inputs": [],
			"name": "modifyUsingMemory",
			"outputs": [
				{
					"internalType": "uint256",
					"name": "",
					"type": "uint256"
				}
			],
			"stateMutability": "view",
			"type": "function"
		},
		{
			"inputs": [],
			"name": "storedValue",
			"outputs": [
				{
					"internalType": "uint256",
					"name": "",
					"type": "uint256"
				}
			],
			"stateMutability": "view",
			"type": "function"
		}
	]
}